:100000000C948D080C949F080C949F080C949F08E6
:100010000C949F080C94202C0C949F080C949F081F
:100020000C949F080C949F100C949F080C949F08AC
:100030000C942A220C94042C0C94122C0C94042260
:100040000C949F080C949F080C94DE2B0C949F0832
:100050000C949F080C949F080C949F080C949F0884
:100060000C94A0100C949F080C949F080C949F086B
:100070000C949F080C949F080C949F08E62FF72F70
:10008000903009F49395EBB8CAB8B6EFB0937A0004
:10009000A5E0A0937B00A8E0A093810010928000CF
:1000A000AFEFA0938500A0938400A6E0A093360054
:1000B00010928B0010928A00B3E0AFE3A91B51E0CD
:1000C000392F33302AF0A05CBC4F53953350F9CF11
:1000D000B0938900A0938800A0917A00A4FFFCCF80
:1000E000B6EBB0937A00A2E0A0936F00A9E0A093D2
:1000F000810062E0A0E0A0937B00A1E0A093530008
:100100008895EBB8CAB884FF1AC0A8E10000AA9588
:10011000F1F7EF93FF93E1B1F2B1A4E0C4FCA2E0E8
:10012000C2FCA1E0BF2FBA2BAE2BB2B90AB9A1B95C
:10013000E1B9F2B9FF91EF910BC00C947D00ACE1F5
:1001400000000000AA95F1F72BB9EBB800000AB93E
:10015000A0918400A0918500B0918900A395AB1770
:1001600060F7A0917A00A4FFF3CFB6EBB0937A00CA
:100170006A9571F76091780070917900308186FD01
:10018000630F6193308186FD731F80FF7193652F2C
:100190004A9579F710926F0010928100B6E0B09303
:1001A0007A000895FE01F701F001496473733D0080
:1001B000206574613D00554A5400505554001008A4
:1001C000407E01013E01013E01013E01017E4040B1
:1001D00018000720080808F80000002060A03FA0D1
:1001E0006020020202FF0202021010101F00000035
:1001F000050842818989760508C2A191898605088A
:10020000000402FF0010100508F87838588809101B
:1002100003081C3E7F0D080710FF818181F1E1C1B9
:10022000FF4040404743410D080110FFFF11080304
:1002300010F1E1C14743410E000820212112206046
:10024000E0E0E0FEFE0402010001037F7F21C2C462
:10025000C4C04094840007030102040E080210FE8B
:10026000FE7F7F00000000110005202060E0E0E03C
:100270000201000103C2C4C4C040070301020431EB
:100280000803083320342D33306E46284C290052A1
:1002900045465F523D005245465F433D00203E319A
:1002A00030306E460066706E056D006B4D04104078
:1002B00001020400111111131D101000000E111184
:1002C0000A1B00041F111111111F04001E0203025A
:1002D0001E0000000F0818080F00001113171F1749
:1002E00013110011191D1F1D1911001B1B1B1B1BB6
:1002F0001B1B005244533D005B435D003108030863
:100300003320003108070608090A08332000432B70
:10031000455352405450313A3300664054503200F5
:10032000203530487A00433073616D7020004330CF
:10033000200052695F4C6F3D0052695F48693D0083
:1003400052303D0052482F524C002B52482D203144
:1003500032203133203233002B524C2D20313220C9
:1003600031332032330052482B0052482D0052487E
:10037000663D005265663D00494345733D00494373
:1003800045303D0056657273696F6E20312E3133F2
:100390006B0008090A080008070608002A01202047
:1003A000007A20513D0020696620002040302D3524
:1003B000560008020800080108004E6F74206361AF
:1003C0006C696272617465642120466F72FF6361BB
:1003D0006C6962726174696F6E20636C616D70200C
:1003E0007468652033FF70696E7320746F6765747D
:1003F00068657220616E642073746172742077691D
:10040000746820746865FF6B65792E2041636B6E9C
:100410006F776C65646765207468652073656C66CA
:100420002D74657374207769746820746865206B17
:1004300065792077697468696EFF32732E2044698C
:1004400073636F6E6E6563742070696E732061668E
:1004500074657220746865FF6D65737361676520EC
:100460002269736F6C617465FF50726F626521223F
:100470002069732073686F776E2E20536F667477D0
:1004800061726520616E6420646F63756D656E7462
:100490006174696F6E2069732061742073766E3A9F
:1004A0002F2F206D696B726F636F6E74726F6C6C3F
:1004B00065722E206E65742F7472616E7369737429
:1004C0006F72207465737465722000566578743D90
:1004D0000049723D004C3D0020566C6F73733D0027
:1004E000204553523D005643433D0043656C6C210B
:1004F00000080308004056673D002056743D005533
:10050000663D005562653D00203132333D00506943
:100510006E2000424A542D504E5000424A542D4EF7
:10052000504E00433D0043673D006846453D002D69
:1005300049474254004A464554002D4D4F5300440C
:100540004320507772204D6F6465004F4B0042612D
:10055000742E2000436F6E7472617374004C4620D9
:1005600071756172747A0048462071756172747A8F
:10057000004672657175656E6379203E20324D4884
:100580007A004672657175656E63790073686F7283
:10059000742050726F626573210053656C667465D8
:1005A0007374007475726E210043280546292D630B
:1005B0006F7272656374696F6E00726F74617279C5
:1005C00020656E636F6465720031302D626974203E
:1005D00050574D00662D47656E657261746F7200ED
:1005E000537769746368206F66660053686F77207D
:1005F0006461746100566F6C746167650054726168
:100600006E736973746F720053656C656374696FA0
:100610006E3A005465737420456E640069736F6CA4
:100620006174652050726F626573210053656C665A
:1006300074657374206D6F64652E2E0054696D654A
:100640006F75742100206465746563746564004E81
:100650006F2C20756E6B6E6F776E2C206F72002082
:10066000756E6B6E6F776E00546879726973742E55
:1006700000547269616300706172740064616D613D
:100680006765642000656D70747921007765616B22
:100690000054657374696E672E00B90387035803AD
:1006A0002E030703E402C302A40288020000140020
:1006B00029003E005300690080009700AE00C6008C
:1006C000DF00F80012012D01490165018201A0013E
:1006D000BE01DE01FF012102440268028E02B50262
:1006E000DE020903350364039403C803FE033704E1
:1006F0007304B404F90443059305EA054906B306F7
:100700002907AE074808FF08DE09FD0A930C480FC9
:10071000991B705780508D4A6645E340E83C5E392E
:1007200033365A33C6306D2E492C532A8428DA26A4
:100730004E25DF2389224A212020081F011E091D82
:10074000201C431B731AAD19F1183F189517F416A6
:100750005A16C6153A15B3143214B7134013CE12F5
:100760006112F81193113111D310781000000000BC
:100770000000000000000000000000001E212121F8
:100780001200807F0000007E4A4A4A3400000000C8
:100790000000FC40201008040201000000010101DB
:1007A000010101010101010101017F0488D0E0F094
:1007B000F800000000000000000000000000000041
:1007C000000000FC94948400000102FC0000000082
:1007D00000000000000000001E21212112E0C08066
:1007E0004020100F000000C020202040000000FC2E
:1007F00000009E9E04030303030200000020202348
:10080000242525232020203F00007B7B21428404D7
:1008100080C0000000000000000000000000000098
:10082000FC94948400040607070708F00000000009
:10083000000000000000000000803F2121120C0099
:10084000000000FF000000F0084848C80000FE005B
:1008500000E7818181C1E1F18181810100202020B7
:100860002121212020203F0000F340404041434708
:1008700040407FC0000000000000000000000000B9
:100880000000489494946400000000FF0000000001
:100890000000000000000000000000003F212112C5
:1008A0000C0000FF000000F0084848D000000000E5
:1008B0000000FEFE04040404040404070008080801
:1008C00009090908087F3E1C08087F7F2020202096
:1008D000202020E0000000000000000000000000D8
:1008E0000000000048949494640000FF00000000A1
:1008F00000000000000000FF003C0A090A3C002242
:1009000031292926000082868E9EBEFEFEBEDEEFC5
:10091000F6FAFEFEFAF2E2C28200000008080804BD
:10092000027984A4A46800FF000000000000000019
:10093000000000000000000000000000000000FFB8
:100940000000F0282428F0001008FC00000000003F
:10095000000000000000003C0A090A3C00FF000003
:100960000000000000000000000000000000000087
:10097000040C1C3C7CFF7C3C1C0C040000000000B0
:10098000009EA1A9A99A804323130B0703FF030329
:1009900003030303000000000000000000000078D3
:1009A0008484844800FF000000000000000000F084
:1009B0000804E2110909090909090909091121C2F3
:1009C000040810E000000001020404070000000019
:1009D0000080402010884423100804030000000019
:1009E00000000000000000FE0100FC020100000009
:1009F000000000000000000000000000000000797E
:100A000049497900000000000000000040F010108B
:100A100010F0400001010101010040F8F0E040F851
:100A2000400003010000030040F840E0F0F84000FF
:100A300003000001030040FCFC00FCFC4000070731
:100A400000070700E0101010E00000040700070492
:100A5000000000F80000F000000E01020103020097
:100A60000808080808F8400202020202030040F8E1
:100A70000808080808000302020202024040404041
:100A8000404040000000000000004040C0000080E6
:100A9000000000010202010200800000C04040028C
:100AA00001020201000000FC021212EC000E030021
:100AB0000101000000000000000000000000000034
:100AC0000000000000000000000000000000000026
:100AD0000000000000000000000000000000000016
:100AE00000000000000000000000000000F8040208
:100AF000FE02000C070404070C00FE000000FE00CC
:100B00000007040404070C00FE00FE00FE000007BE
:100B1000040704070C0000E01008F808000C0704A4
:100B200004070C00E014FC14E00000010A0F0A01A5
:100B30000000F8000000F8000007040404070C009F
:100B4000F800F800F8000007040704070C00000094
:100B50000000000000000000000000000000000095
:100B60000000000000000000000000000000000085
:100B70000000000000000000000000000000000075
:100B80000000000000000000000000000000000065
:100B90000000000000000000000000000000000055
:100BA0000000000000000000000000000000000045
:100BB0000000000000000000000000000000000035
:100BC0000000000000000000000000000000000025
:100BD0000000000000000000000000003CFE3C009F
:100BE000000000001B00000000160E00160E0000A2
:100BF00000000000000008FE0808FE0800010701D0
:100C00000107010038FE4484FE0800041F08081F85
:100C100007001C149C402018000601000E0A0E005C
:100C20008854225488C00003040402010600000016
:100C3000160E00000000000000000000F008040292
:100C4000020000030408101000000002020408F073
:100C500000001010080403004850E0E05048000273
:100C6000010000010200004040F040400000000090
:100C700001000000000000000000000000160E004F
:100C800000004040404040400000000000000000E4
:100C90000000000000000000000606000000000048
:100CA000804020100002010000000000F804020251
:100CB00004F80001020404020100000804FE02001E
:100CC0000000000407040000080482422418000603
:100CD000050404040600060212122AC600010204DA
:100CE00004020100E0988680F880000000000407FC
:100CF00004003E22121222C6000102040402010076
:100D0000F824121222C000010204040201000602AB
:100D1000C262321E00000007000000008854222238
:100D2000548800010204040201003844828244F81D
:100D30000000040404020100000030300000000044
:100D40000006060000000000303000000000000A2D
:100D5000060000000040A01008040000000001028E
:100D600004002020202020200001010101010100B9
:100D700000040810A0400000040201000000180454
:100D8000824224180000000D00000000F804629266
:100D900094F8000102040404020000F8848284F83C
:100DA000000007000000070002FE222222DC0004EF
:100DB000070404040300F8040202040E0001020404
:100DC0000404030002FE020204F800040704040203
:100DD000010002FE22720206000407040404060059
:100DE00002FE227202060004070400000000F8045C
:100DF0000282848E000102040402070000FE20200B
:100E000020FE0000070000000700000002FE0200B4
:100E1000000000040704000000000002FE020000C1
:100E200002040403000002FE22F09C0600040704F2
:100E30000007040002FE020000000004070404048E
:100E4000060000FE1C701CFE0000070000000700EA
:100E5000FE1C70C0FE000007000001070000F8043F
:100E6000020204F8000102040402010002FE4242F0
:100E7000423C0004070400000000F804020204F8E9
:100E8000000102040502050002FE42C2423C0004C9
:100E90000700000704000C122222448E0001020405
:100EA00004020100000E02FE020E0000000407040E
:100EB000000000FE000000FE000003040404030024
:100EC000007EC000C07E000000010701000000FE9F
:100ED00080F880FE00000107010701008ED87070C5
:100EE000D88E00070000000007003E60C0603E0092
:100EF000000004070400000006824222120E0007D0
:100F000004040404060000FE0202020000000F08B0
:100F100008080000081020408000000000000000C9
:100F2000010200020202FE0000000808080F000093
:100F30000008040204080000000000000000000097
:100F400000000000000808080808080800000E1645
:100F500000000000000000000000C0282848F00049
:100F6000000304040403040002FE120808F0000455
:100F7000070404040300E01008081038000102040C
:100F800004040200F0080810FE0200030404040731
:100F90000400E090888890E000010204040400004E
:100FA0000010FC1212040000040704000000F00806
:100FB0000808F00800010A0A0907000002FE1008EC
:100FC00008F00004070400000700000016F6000007
:100FD000000000040704000000000016F6000000F6
:100FE00004080807000002FE40F098080004070407
:100FF00000070400000002FE0000000000040704D7
:10100000000008F808F008F00004070007000700D7
:1010100008F8100808F00004070000000700E010BE
:10102000080810E0000102040402010008F00808AA
:1010300008F000080F0902020100F0080808F00893
:1010400000010202090F080008F82010083000040F
:1010500007040000000030484848903800020404AB
:10106000040403000010FE1010000000000304043C
:101070000200F8000000F80800030404020704005E
:1010800078C000C078000000010701000000F8806F
:10109000F080F800000107010701000018B0C0C08F
:1010A000B018000603000003060008F80000F80866
:1010B0000000090A0A0700001808884828180006D6
:1010C0000504040406000040A01C02020000000009
:1010D000070808000000003E0000000000001F009C
:1010E00000000002021CA0400000080807000000E9
:1010F00004060206040600000000000000000000D4
:10110000000000000000000000000000202020205F
:10111000202020205B524C5D000011241FBECFEF29
:10112000D0E1DEBFCDBF21E0A0E0B1E001C01D9263
:10113000A63CB207E1F70E947D3B0C9433440C942B
:1011400000002B98239A80FD2D9A80FF2D98259AD8
:10115000279A2E9867FD2F9A67FF2F982E9A2E9820
:1011600066FD2F9A66FF2F982E9A2E9865FD2F9A6E
:1011700065FF2F982E9A2E9864FD2F9A64FF2F9862
:101180002E9A2E9863FD2F9A63FF2F982E9A2E98F1
:1011900062FD2F9A62FF2F982E9A2E9861FD2F9A4A
:1011A00061FF2F982E9A2E9860FD2F9A60FF2F983E
:1011B0002E9A2B9A2E982F9808956093460180932B
:1011C000040186958093AD0187E0689F602D11240E
:1011D00060930F01089580914601809301018091F1
:1011E000AD01809303010895809103016091010195
:1011F000880FE3CF0895CF93C82F692F81E0A1DF37
:101200006C2F81E09EDFCF910895682F80E099CF09
:1012100008958EEAFADF85EAF8CF08958DE056D575
:101220008AE054C508951092AD0160E080E0C5DF0A
:10123000F5CF0895CF93DF93C0E080E1E6DF80E053
:10124000E4DF8C2F806BE1DFD4E860E081E079DFC0
:10125000D150D9F7CF5FC83081F7E5DFDF91CF916B
:1012600008952C982E982F982B98249A269A279A8E
:10127000239A5DD52B9A239A2D98259A84E15ED5E1
:101280002C9A84E15BD58EEAC0DF82EEBEDF82EA73
:10129000BCDF80EABADF80ECB8DF8FE2B6DF84E241
:1012A000B4DF81E8B2DF80E090E00E9405448F73F4
:1012B000ACDF80E4AADF84EAA8DF86EAA6DFBADF33
:1012C0008FEAA3DF60E080E078CF089581E080932B
:1012D000AD0160E082E071DFA1CF089582E08093EC
:1012E000AD0160E084E069DF99CF089583E08093E9
:1012F000AD0160E086E061DF91CF08950895582F39
:1013000028E030E090E841E080E0652F642309F0B8
:10131000892B440F969521503109B9F70895B0E013
:10132000A0E0E5E9F9E00C9456436C0110E0C80137
:10133000860F911D813891050CF041C0E42FEE0D10
:10134000FF27FF1FCF01E134F105CCF5D42FD6954F
:10135000D695D695019733E0959587953A95E1F71F
:10136000F22FF2703F2E21FF0DC0482F4D1B550B61
:10137000FA01E09FA001E19F500DF09F500D112454
:10138000C40ED51EC82F883008F0C7E0862F82957E
:101390008F70482E689444F887E0782E7D1A6F701D
:1013A000662E2170522E780151E0E51AF108CD1712
:1013B00058F49091040187E0891B806B26DFCDB73C
:1013C000DEB7E1E10C947243872D806B1EDF842D24
:1013D0001CDF862D1ADF912C812C5601AE0CBF1C10
:1013E0000815190539F43320C1F0C01AD10ADF5F9E
:1013F0007A94DDCFF501E819F909511003C0F6011F
:10140000E80DF91D8491311001C079DF682F81E06A
:1014100098DE8FEF881A980AE3CFC00ED11EE7CF6F
:10142000EF920F93482F8F7320E6829FC001112403
:101430008459984F28E046FF28E420931001109229
:10144000000147FD08C02091100130E230930001F7
:101450002D5E2093100120E2E22E08E120E0409171
:101460000001609110015BDF0F91EF900895EF9202
:101470000F93262FFC0134913196449131960491BB
:101480003196E490E09100014E0F60911001630FDE
:10149000049645DF0F91EF90089560E0E8CF08953E
:1014A000EF920F93CF93C82F809146018F5F809367
:1014B000460140910401440F440F440F2EE0C29FA7
:1014C000C001112420E1E22E07E020E060910F012D
:1014D000845F954F24DF80910F01895F80930F0116
:1014E000EFEFEC0F8C2FEA30B0F4F0E0E658F54F58
:1014F0000C946A42840A880A910A990A970A930A04
:10150000930A950A9F0A9F0A8EE3E0D38CE703C0F3
:101510008CE7DCD38CE3DAD3A895CF910F91EF90D1
:1015200008958CE7F2CF82E5F6CF8DE2F4CF85E720
:10153000F2CF8FE4CBD388E6C9D38DE6ECCF8CE431
:10154000EACF8F5CADCF089580E2AACF0895CF9304
:10155000C82F1C1614F0CF910895F6DFC150F9CFB3
:101560009091460182E1891BF2CF0895CF93C82F55
:10157000F7DF8091AD018F5F8093AD01843070F013
:1015800083E08093AD0181E0809349018091AD01BA
:101590006C2F880F12DE42DECF9108951092490120
:1015A000F5CFE4DF27D58091AD01833008F036CE4A
:1015B000089539DED5DF37CE089588DED1DF86CEB7
:1015C00008958DE36DCF0895CF93DF93EC0189915A
:1015D000811103C0DF91CF91089562DFF8CFCF93DF
:1015E000DF93EC01FE018491982F9F7719F058DF6B
:1015F0002196F8CFDF91CF910895EF920F93FC01E0
:1016000004913196E49002968ADE0F91EF9008954E
:101610000F9386E295E0E3DF409191014D3F6CF43A
:1016200060917F0170918001809181019091820190
:1016300003E026E417D10F9108958FE331DFFBCF4C
:10164000909124019F70923071F4ABDF83EF92E0B0
:10165000C6DFE0914701F091480122E044E06FEFDE
:1016600084819581DFC1089597FF09C08F939F936F
:101670008DE216DF9F918F91909581959F4F6CE23F
:1016800071E04AE050E00E94D2439ECF0895ECDF23
:1016900001C0EADF59CF0895EF92FF920F931F9395
:1016A000182F062FF42E88E095E099DFEE24E091C4
:1016B0004701F09148018685E81611F4812F09C091
:1016C0008485E81611F4802F04C08585E81611F48E
:1016D0008F2DE6DEE3948E2D833049F71F910F9115
:1016E000FF90EF900895EF92FF920F931F93182FA2
:1016F000062FF42E80E055DF8EE095E070DFEE24BB
:101700008E2D1FDF5EDFE0914701F0914801868555
:10171000E81611F4812F09C08485E81611F4802F92
:1017200004C08585E81611F48F2DBADE0DDFE39431
:101730008E2D833029F71F910F91FF90EF90089520
:10174000682F80E092E0662309F491E0623009F4AA
:1017500081E008950F93082FEEEAF1E0880F880FDB
:10176000E80FF11D6081718182819381643671057A
:101770008105910570F42091020127FD0AC0802F98
:10178000DFDF692F0E9467276EEF23E044E04AD134
:1017900004C04FEF04E024E065D0D6DE0F91089539
:1017A000863058F4E1EAF1E0E80FF11DE80FF11D91
:1017B0008081918163E041D1C7CE08951F93182F96
:1017C00080917A01882319F0BFDE80E069DE7EDD3A
:1017D0008FEF94E004DF812F82958F70E1DF812FFE
:1017E0008F70DEDF1F9108958091110182958F70B7
:1017F00019D08091110183701CD080911101DECF2E
:101800000895E5E9F1E0E80FF11D0895CF93F9DFC0
:101810009081C681C91710F405D001C013D094DEA1
:10182000CF910895EEDF8F9380818BDE8F9101C081
:1018300008958F9386EB93E0D2DE8F91E2DF86816D
:1018400080CE0895DEDF8F9386817BDE8F9101C08D
:1018500008958F9382EB93E0C2DE8F91D2DF808177
:1018600070CE0895AEE0B0E0E8E3FCE00C945543A0
:10187000142F322E202E6B017C010F7080E38983A0
:101880008A838B838C838D838E83F7FE40C08DE2A9
:1018900007DEF094E094D094C094C11CD11CE11CEC
:1018A000F11C68EE462E63E0562E612C712C03303D
:1018B00041F150E1452E57E2552E612C712C043038
:1018C00001F140EA442E46E8542E66246394712CBC
:1018D0000530B9F030E4432E32E4532E3FE0632E5E
:1018E000712C063071F074E6472E512C612C712C4E
:1018F000073039F420E8422E26E9522E28E9622EDC
:10190000712C9AE0892E912CA12CB12C12C025FEAD
:10191000C8CF8BE2C5DDC5CFC701B6016B5F7F4F76
:101920008F4F9F4FA50194010E942C4269017A01BB
:101930001F5FC414D504E604F70470F7E1E1E10F7A
:101940009BEAE99FE12D11247E2E769486E0811B8F
:10195000899F112D11241695912F990F190F811B15
:10196000182F5E0187E0A80EB11C2AE0A501C7016F
:10197000B6010E94B143F50101900020E9F73197CB
:101980006F01CA18DB082C2D5601BB24812F90E073
:1019900004968A159B0514F473941D5FE72DF0E0FF
:1019A000EB55FD4FF49024FE29C0201738F50C1993
:1019B0008C2C811A800E181424F08EE271DD012F18
:1019C0000C19111102C088EF882EE12C10E0A00E36
:1019D000B11EC82C082C000CDD08EE2DF0E0EA1535
:1019E000FB0574F0FF2011F08F2D5ADD332011F02C
:1019F000832D56DD2E96E2E10C94714300E0D8CFA2
:101A00003696E01BF10B81E090E08C0F9D1FE80FF4
:101A1000F91F808145DDE394EC141D04F1F68EE29C
:101A20003FDDDBCF0F93362FBC0190E080E0022F2B
:101A3000242F432F17DF0F9108950F93062FBC011A
:101A400090E080E026E54DEF0DDF0F9108950F93B4
:101A5000042F28E440E006DF8AE722DD75DD0F91E0
:101A60000895E82FF0E0EE0FFF1FEC55FE4F859133
:101A7000949120910001420F20911001620F20E00B
:101A8000BCCD0895CF93DF93C82FD62FE0914701A7
:101A9000F091480148E16EE18685E3DFE09147017E
:101AA000F09148014D2F6C2F8485DBDFE0914701D9
:101AB000F091480140E06EE18585D3DFDF91CF9161
:101AC00008951F93CF93DF93B5DB80ECA9DC62E030
:101AD00080ED91E0CCDC80E8A3DC85E092E0DDDC09
:101AE00060E085E06ADB8BE195E079DD69E085E027
:101AF00064DB83E195E073DD88E99AE314D29ADB35
:101B000083E48EDC83E08CDC8EE092E0C6DC61E076
:101B100082E053DB8EE4C4DC8DE2C2DC85E395E039
:101B20005EDD6AE082E049DB80E5BADC8DE2B8DCAC
:101B300085E395E054DD88E99AE3F5D17BDB81EC20
:101B40006FDC81E86DDC87E692E0A7DC60E085E091
:101B500034DB8EE4A5DC8DE2A3DC85E4A1DC8FE23E
:101B600095E03DDD69E086E028DB80E599DC8DE2EB
:101B700097DC85E495DC8FE295E031DD88E99AE336
:101B8000D2D158DB81E44CDC8BE592E086DC81E04D
:101B900047DC87E392E081DC60E081E00EDB8EE4ED
:101BA0007FDC8DE27DDC84E47BDC8FE295E017DD79
:101BB00069E082E002DB80E573DC8DE271DC84E4C5
:101BC0006FDC8FE295E00BDD88E99AE3ACD132DB84
:101BD00082EC26DC82E824DC8DE292E05EDC60E0D0
:101BE00085E0EBDA8EE45CDC8DE25ADC85E458DCDF
:101BF0008AE395E0F4DC69E086E0DFDA80E550DC3A
:101C00008DE24EDC85E44CDC8AE395E0E8DC88E993
:101C10009AE389D10FDB82E403DC87E292E03DDCCA
:101C200082E0FEDB85E192E038DC61E081E0C5DA4C
:101C30008EE436DC8DE234DC84E432DC8AE395E049
:101C4000CEDC6AE082E0B9DA80E52ADC8DE228DCCD
:101C500084E426DC8AE395E0C2DC88E99AE363D178
:101C6000E9DAE1DA87E993E0BADC30DB82E993E094
:101C7000B6DC34DB81EF94E0B2DC38DB86EB93E05A
:101C8000AEDC62DC82EB93E0AADCC0E012E18C2FD8
:101C9000612F0E94F94191110BC0D82FD37021F40C
:101CA00088E99AE340D1C6DA60E08D2F880F85DAA3
:101CB00080E28C0FF5DBCF5FCF3549F788E99AE3F7
:101CC00032D1B8DADF91CF911F9108958F932F937E
:101CD0002AE08095519A089410F4599802C0599AB4
:101CE000000020D027D086952A95B1F72F918F91AB
:101CF000089503D002D001D000D000D003D002D08C
:101D000001D000D000D003D002D001D000D000D04C
:101D1000A89503D002D001D000D000D003D002D0CB
:101D200001D000D000D003D002D001D000D000D02C
:101D300003D002D001D000D00000089590E0893C8B
:101D400028F0885C48EC849FC0011124009709F4B6
:101D5000089520918100277019F0DADF0197F6CFFE
:101D60008130910519F002973EE303C037E180E02E
:101D700090E02091B200230F2093B30042E0409303
:101D8000700027E023BF889526E023BF10927000E3
:101D9000A895DCCF8F9384E0D1DF07C08F9382E0DA
:101DA000CDDF03C08F9381E0C9DF8F911F93182F80
:101DB000106410937C00E12FE07880913701E817E0
:101DC00059F0E0933701AEDF8EE980937A0083E02B
:101DD00083BF889582E083BF20E030E0A901E0E086
:101DE00020C08EE980937A0083E083BF889582E0EB
:101DF00083BF6091780070917900260F371F411DD5
:101E0000511DE43069F480913901803049F084E05B
:101E10002030380728F417FD03C010681F7BC9CF96
:101E2000EF5F80913601E817E0F260913A0170911E
:101E30003B0117FF04C0609138017091390180E0C7
:101E400090E00E94EA412FEF33E040E050E00E9432
:101E50002C42B901CA012091360130E040E050E047
:101E60000E942C42C9011F9108959B01281B390B28
:101E700050F0C9010895BC0180913A0190913B0155
:101E80006817790718F4861B970B089580E090E097
:101E9000089583B1881F8827881F1D9982609091BB
:101EA0001C01943050F09EE090931801809319012A
:101EB00010921D0191E090931C01E0911C01AE2F46
:101EC000B0E0A85EBE4F2C912817C1F081110EC062
:101ED00090911D01A3E0AE0FA3702230B1F4B0E0E9
:101EE000A85EBE4F2C919F5F2330C1F0EF5FE3707F
:101EF000E0931C01F0E0E85EFE4F808380911D01BD
:101F000087FD0FC080931E010895213079F7B0E05E
:101F1000A85EBE4F2C91233049F7915090931D013C
:101F2000E5CF8195EFCFB0E0A0E0E9E9FFE00C94C8
:101F30005E43E82ED92E27982598EFDE10921D01DA
:101F4000E0911C01F0E03196E370FF27E85EFE4F60
:101F500080EF8083C5E6D9E19CDF379B24C0CE2D7E
:101F6000DD2DF12C15E500E0BB24B394D7FD15C0A1
:101F700082E3C82E8EDFD5DECA94C110FBCF110FCD
:101F8000379B1F5F1F731F33A1F4011103C0CE2DB8
:101F9000DD2D04E00F5F083C80F0802FCDB7DEB769
:101FA000E9E00C947A43BDDED150B1F6C15099F608
:101FB000D6CF111102C00111F0CFA8951C161D0635
:101FC00024F42A9711F4CFEFDFEF80911E018823CC
:101FD00039F0F39480917B01811102C0B0927B01B2
:101FE00084E18F1508F0C2CF80911D018111D5CFFA
:101FF000F12CBCCFCF93EFD8C82F80914901882313
:1020000001F1813051F4C33041F461E186E0D5D86B
:102010008BE246DA61E186E0D0D880E49FE183DF9D
:10202000811104C080911E018111F7CFC33041F4AA
:1020300080914901813021F460E086E0BED890DAD9
:10204000D3D8CF91089589E290E00E940544382FBB
:102050008AE290E00E94054420913E01230F3091D6
:102060003F01381F209321013093220183E0283E55
:10207000380720F0C901885E934002C080E090E0FC
:1020800062E370E00E940542683008F067E0EAE928
:10209000F6E0E60FF11DE60FF11D459155912591F2
:1020A000359162E3681B421B530B649FC001659F1F
:1020B000900D1124499662E370E00E940542620F80
:1020C000731F70937E0160937D018BE290E00E940C
:1020D0000544992787FD909560913E0170913F01DD
:1020E000860F971F9093390180933801909379015F
:1020F000809378010895CF93DF9324E130E0B90114
:102100000E940542DC01ECEAF6E0E60FF71FE60F5D
:10211000F71FC591D591459155914C1B5D0B4A9F79
:10212000C0014B9F900D5A9F900D1124B9010E9440
:1021300005426C0F7D1FCB01DF91CF91089518955B
:10214000189540912301A0914701B0914801E5E91C
:10215000F1E030E020E0822F2417B0F451911C967A
:102160009C911C97591719F05581951303C02F5F47
:102170003F4FF1CF220F331FF901EF55FE4F208162
:102180003181293E334008F084E108951092250101
:1021900010922301109273011092590110922401A0
:1021A0001092450110927A01EEE5F1E01082118261
:1021B0001282EFE7F1E0108A82E0818B1092020137
:1021C00017861686148215821682178281EF838BFA
:1021D00008958FE47BDD86E479DD86E477DD1ED823
:1021E00018D8299889DD90E080E09DCE08951F934E
:1021F000CF93DF93162F11B812B8E82FF0E0E35514
:10220000FD4F94919BB9262F281BE20FF11D27FD4E
:10221000FA95E491E92BEAB9C9DDEC01812FC6DD1D
:10222000AC0120913A0130913B0136952795C901C7
:102230000397BE01625E7F4F8617970778F4255E8D
:102240003F4FC217D30750F4BA01625E7F4F861723
:10225000970720F481E04217530708F080E01AB88E
:10226000DF91CF911F910895CF9361E080E0BFDFB0
:10227000C82F62E080E0BBDFC80F62E081E0B7DF1B
:102280008C0FCF910895AFE0B0E0E9E4F1E10C9458
:102290005543B82E10922501807FC9F4E5DF8330C5
:1022A00091F40E941A098CE296E099D90FD88FE335
:1022B000F7D880ED97E037DE8B30C0F40E941A0922
:1022C00084E893E08CD92F96E2E10C94714306E9FF
:1022D00010E00E941A098CE895E081D9C5DF8330AF
:1022E00009F069C01F5F143008F466C00E946609D7
:1022F0000E947B2280E493E072D960E083E090E06A
:102300000E94124460E084E090E00E94124460E089
:1023100082E090E00E94124460E082E00E94672721
:102320006C019A83898361E082E00E9467277C01C7
:102330009C838B8360E081E00E9467278C019E83F1
:102340008D8323E040E26EEFC6016CDB23E040E2C8
:102350006EEFC70167DB23E044E06EEFC80162DB8C
:102360002AE5C216D10424F084E190E09A8389839F
:10237000698183E090E00E9412448AE5E816F10446
:1023800024F084E190E09C838B836B8184E090E077
:102390000E9412440A35110524F084E190E09E83E6
:1023A0008D836D8182E090E00E94124482E08093F0
:1023B000490120DE06C010E088E2C0DC015009F0CF
:1023C00088CFEB2DEF70EF87E13009F04DC0EE24A0
:1023D000E394F12C78EB872E72ED972E77E4A72EFD
:1023E000B12C08E0E0E2DE2EF0E83F2EC12C1E2DDD
:1023F00050EC252EE2D8DDD884E552D8C7013FD96C
:10240000A3D8113009F0BDC183E793E0E8D864E0B8
:1024100080913E0190913F0110DB0E9466098EE69B
:1024200093E0DDD880917D0190917E0128D98EEBDB
:102430008093360111B812B81AB81BB888EE93E031
:1024400072DD143011F08B3020F4C39484E0C81294
:10245000D1CF88EE93E067DDEFEFEE1AFE0AF8E0E9
:10246000EF16F10409F0C2CF18E7FEDE882341F031
:10247000A4D88CE196E0B3D884E660DC1150A9F7CB
:102480000E941A0989E393E0AAD823E044E06FEFA1
:1024900080913C0190913D01C5DA0E94660982E37A
:1024A00093E09DD823E044E06FEF80914301909149
:1024B0004401B8DA82E0809349019CDD1092250145
:1024C0000E941A098EE293E08AD860E082E00E94BE
:1024D000341F8090870190908801A0908901B0906E
:1024E0008A019C868B8661E082E00E94341FC09046
:1024F0008701D0908801E0908901F0908A01DE8602
:10250000CD8660E081E00E94341F00918701109128
:1025100088011E830D8362E080E00E94341F809159
:102520008701909188019C838B8362E081E00E9407
:10253000341F80918701909188019A87898761E093
:1025400080E00E94341F80918701909188019A83D6
:1025500089832F85213029F020914201223009F012
:10256000F9C1029698878F83C40193D8C60191D888
:10257000B801110F880B990B03E026E444EF72D9E0
:102580008E010F5F1F4F9E01215F3F4F7801F701C2
:10259000819191917F010A97853B9105D0F4E217D3
:1025A000F307A9F742E2C42E40E0D42EF80160817F
:1025B0000E5F1F4F6E5EC6010E941244FFEFCF1ADE
:1025C000DF0AE016F10691F70E9466098BE495E0B8
:1025D00006D882E0809349010DDD0E9414382F85D2
:1025E000213029F080914201823009F0B1C020E40D
:1025F000F22E10E03AE0832E912CA12CB12CC6DDF6
:102600000E9408330091910120917F013091800157
:102610004091810150918201073F0CF4A0C10093C9
:10262000910120937F013093800140938101509369
:102630008201073F09F09BC1205631094109510928
:10264000203935454105510508F091C1609193014C
:1026500070919401CB018B569F4F8B32914008F0C3
:1026600086C11F5F153008F483C189E290E00E94A3
:1026700020440E941A0986E992E00E94EF0A8091A4
:102680009301909194010E94340BDDDC46983E9AB0
:1026900087E08CDB853D9340DCF73E981092390152
:1026A0001092380187E082DB7C0180917801909163
:1026B0007901909339018093380187E077DB6C01D1
:1026C000CC0CDD1C109239011092380187E06EDBD2
:1026D0004C01A0907801B0907901B0923901A0929C
:1026E00038010E9466098FE892E00E94EF0A8BE2AF
:1026F00090E00E940544182FD701A80DB91DAC1910
:10270000BD0995010E947F4296010D2C000C440BDF
:10271000550B0E944E421D5F120F612F8BE290E01D
:102720000E941244812F012E000C990B0E94340B41
:102730008ADC82E0809349015DDC1092420182E2F2
:1027400090E00E940544682F85E290E00E941244C8
:1027500089E18093360180E00E94363B0E941A098D
:1027600084E893E00E94EF0A0E94660983E196E004
:102770000E94EF0A1092250182E0809349013ADC21
:10278000A2CD123089F520913A0130913B01A8E5A4
:10279000BBE10E94704224EC36E340E050E00E942E
:1027A0004E4229013A01F4E0FBB984E18AB980E0A4
:1027B000F1DA841995099A83898384E48AB980E0DF
:1027C000E9DA841995099C838B8380E18BB980E5D4
:1027D0008AB981E0DFDA841995099E838D8388E5C3
:1027E00093E00E94EF0A34C0133049F50BB928E298
:1027F0002AB980E0CFDA20913A0130913B01369539
:10280000279538872F83821B930B9A83898388E8C7
:102810008AB980E0BFDA2F813885821B930B9C83B5
:102820008B83DBB8E0EAEAB981E0B4DA2F8138853E
:10283000821B930B9E838D838AE493E0D2CF143066
:10284000D1F48CE196E00E94EF0A0EDD8111A8C060
:102850000E94660989819A810E94340B0E94A40A11
:102860008B819C810E94340B0E94A40A8D819E81E1
:102870000E94340BDFCD153099F41BB80AB980E003
:1028800089DA9A838983DAB881E084DA9C838B833E
:102890003AB882E07FDA9E838D838AE693E0A1CF07
:1028A000163039F50AB90BB980E074DA20913A0193
:1028B00030913B01821B930B9A838983DAB8DBB892
:1028C00081E068DA20913A0130913B01821B930B41
:1028D0009C838B833AB83BB882E05CDA20913A0162
:1028E00030913B01821B930B9E838D8386E693E0A0
:1028F00078CF173059F520913A0130913B01A8E586
:10290000BBE10E947042A50194010E942C42290162
:102910003A010BB9FCE0FAB980E03CDA8419950978
:102920009A838983DBB820E32AB981E033DA8419FA
:1029300095099C838B833BB82AB882E02BDA8419F3
:1029400095099E838D8384E493E04BCF113009F089
:102950007FCF70CD98878F831092420105CE0F5F95
:10296000CA01B901A50194010E942C4255CE10E084
:102970000E94660960917F017091800180918101C0
:102980009091820104E026E4409191010E94320C72
:102990000E94B00A88E2D2D9FA94F11030CED8CE93
:1029A00082E0C82E55CF8091420181110DC082E294
:1029B00090E00E94054461E0680F85E290E00E948B
:1029C000124481E0809342010895EF92FF920F93A9
:1029D0001F93CF93DF93D62FE82FF0E0E055FD4F04
:1029E000E491E2B9E1B91BB8E62FF0E0E355FD4F01
:1029F000E491EAB9CE2FCC0F88E8E82E83E1F82ED7
:102A00008D2FC8D98C01CAB98E159F0518F1892B55
:102A1000E1F00E94760981ED94E00E94EF0AD8016E
:102A200020EA36E841E050E00E94854228E937EB91
:102A300040E050E00E942C42C90122E041E467EFEF
:102A40000E94120D11B812B81AB8CDB7DEB7E6E081
:102A50000C947D437801D4CFFC019C01261B370BDD
:102A6000CA0170E060E0A901460F511D452F5527AE
:102A7000620F240F351FAC01470F511D452F5527FD
:102A8000780FDA01AA0FBB1F8A0F9B1F4B3E20F461
:102A9000E217F30740F7089590E080E00895A7E17A
:102AA000B0E0E5E5F5E10C9455438E8B162F042F2D
:102AB000A895E62FF0E0E355FD4F24912D87220FD6
:102AC0002D8B339634913A83E42FF0E0E355FD4F9C
:102AD00044914B83E42EEE0C3396F490E82FF0E013
:102AE000E355FD4F84918983880F8E8733969491A7
:102AF0009F8B4BB94D84442A4AB891B992B9862F1D
:102B000051D96C018B818E298BB95D845E285AB8AE
:102B1000812F48D9ED85EAB9812F44D93C011AB8F3
:102B2000F6D81BB84AB8812F3DD9B6019ED94C01C1
:102B3000FA81F1B912B82B813981232B2C832BB95F
:102B40002AB98E892FD997D95C011BB8E0D8498161
:102B50004BB98E8927D98FD99C878B8789818AB970
:102B60008E8920D988D91C016B857C85C5017DD9CA
:102B70008032E1E09E0730F4F0E28F16F1E09F062C
:102B800008F466C62B853C85820E931E8C0D9D1D18
:102B90008816990618F0DC86CB861301209159011E
:102BA00080917301820F9927991F02974CF0213071
:102BB00009F089C59091560180917001981383C5E1
:102BC00039813E293A878B859C858437910508F4A5
:102BD0007EC10A96880F991F2816390608F077C11A
:102BE0009F8991B992B95AB8812FD8D86C01802F9A
:102BF000DDD85C01EBB8812FD1D89601295A3D4F21
:102C000012B82817390708F0A5C0EA81E1B9FA859A
:102C1000FAB9FBB9802FC2D888349F4008F495C018
:102C200085E08093250182E280932401D0924F01B8
:102C3000C0924E01B501C60123D9909355018093EE
:102C400054019601A0E1B7E20E94704220911F0159
:102C50003091200150E040E00E942C42309351011D
:102C6000209350018D898E298AB91BB83F8931B9CB
:102C700032B9802F9BD86C01812F90D8B60100D932
:102C80009C019093530180935201909124019F7075
:102C9000943069F540915001509151016091540177
:102CA00070915501C901D8DE0097E9F0EAB84F8963
:102CB0008A81482B41B9812F71D86C0111B89C01D0
:102CC000A0E1B7E20E94704220914301309144019B
:102CD00050E040E00E942C42A901B60180915201CF
:102CE00090915301B9DE90934F0180934E018091F2
:102CF00024018F70843019F112B89A81F92AF1B841
:102D0000E981EAB9FC81FBB98E894CD86C01B3D852
:102D10007C01812F4BD8A0902601B0902701BC01E7
:102D2000C601AED89501DC010E947042970150E0C7
:102D300040E00E942C4230934F0120934E0180913D
:102D400059018F5F809359014CC385E08093250121
:102D500084E26ACF2A8121B93A853AB93BB98E8992
:102D60001DD86C01802F22D85C0149814BB98E8916
:102D700015D8895A9D4F8C159D0508F0A4C48F89DC
:102D800082B981B9802F0AD8813D934008F09AC05A
:102D900085E08093250182E380932401B601C5017B
:102DA0006FD890936F0180936E01C60164D89C0127
:102DB000A0E1B7E20E9470422091260130912701E4
:102DC00050E040E00E942C4230936B0120936A0156
:102DD00012B8FA81F1B98E858E298AB98BB98E899C
:102DE0000E94D60E6C01802F0E94CE0EB60148D8EC
:102DF0009C0190936D0180936C01909124019F70D0
:102E0000943089F540916A0150916B0160916E0197
:102E100070916F01C90120DE009709F1EBB8EAB8A3
:102E20002F8922B9EA81E22BE1B98E890E94CE0E68
:102E300022D86C0111B89C01A0E1B7E20E94704257
:102E400020913C0130913D0150E040E00E942C4235
:102E5000A901B60180916C0190916D01FDDD909307
:102E6000690180936801809124018F70843021F181
:102E70003F893F2932B931B91BB84C814AB98E8993
:102E80000E94D20E5C01812F0E94D60E7C01C09060
:102E90001F01D0902001BC01C5010E94400F960186
:102EA000DC010E947042970150E040E00E942C42F9
:102EB0003093690120936801809173018F5F809343
:102EC00073017FC085E08093250184E365CF12B84C
:102ED0008A8181B999819BB9EA85EAB98E890E9474
:102EE000D20E988B8F870E943B0F9F838E83802FFB
:102EF0000E94D60E998788873101F4E66F0E711C07
:102F00002E813F81B1016216730608F06BC0C901C2
:102F10000E94400F6C01209126013091270150E062
:102F200040E060E871EA83E09CE10E942C42D60117
:102F30000E948542E885F9859F0150E040E00E94AB
:102F40002C4249015A011AB81BB8FF89F2B9F1B9EC
:102F500081E00E949E0E4AB8812F0E94D20E8F35CA
:102F60009D4008F483C15AB8812F0E94CE0E6C0197
:102F7000802F0E94D60E9A8B898B8E890E94D60E46
:102F80009C8B8B8B89899A89813D974008F4FBC083
:102F9000EBB8812F0E94CE0E8115944008F441C0F9
:102FA000809125018430E8F58AE0809325016989C4
:102FB0007A898B899C890E94400F90936901809344
:102FC000680181E0909173019F5F90937301882362
:102FD00009F433C400937001109371014E8940933A
:102FE00072012BC48E819F810E94400F6C01FC8175
:102FF000FAB98E890E94D20E988B8F870E943B0F60
:103000009F838E83802F0E94D60E99878887BC016C
:10301000C6010E94400F9C01A4E6B0E00E947042ED
:1030200089CF84E0809325018DE08093240176018F
:103030002C143D0410F4E218F30840901F01509046
:103040002001712C612C60E871EA83E09CE1A3010E
:1030500092010E942C42D7010E948542E989FA8997
:103060009F0150E040E00E942C4280917301882330
:1030700071F08091640190916501A0916601B09119
:10308000670182179307A407B50708F076C020935D
:103090006401309365014093660150936701960186
:1030A000A0E1B7E20E947042A30192010E942C426B
:1030B00030936B0120936A0169897A898B899C8995
:1030C0000E94400F909369018093680181E04091D4
:1030D0006401509165016091660170916701481526
:1030E00059056A057B0508F04AC0809264019092F8
:1030F0006501A0926601B0926701688579858F8528
:1031000098890E94400F90936901809368012E81F5
:103110003F81A0E1B7E20E947042209126013091E8
:10312000270150E040E00E942C42205F384D309350
:103130006B0120936A01C0901F01D0902001F12CF7
:10314000E12C9101A0E1B7E20E947042A701960133
:103150000E942C4230936D0120936C012B853C859D
:10316000A0E1B7E20E947042A70196010E942C42A2
:1031700030936F0120936E0124CF80E0A8CF882385
:1031800009F420CFD8CFF1E62F16310408F06EC035
:1031900021EDC21627E0D20608F468C085E08093CE
:1031A000250182E180932401C60186509F4FEB895F
:1031B000FC898E179F0708F042C083E180932401A9
:1031C000FA81F770BF2E802F806480937C002BE003
:1031D0002983CC24C394D12CEE24EA94A3E0FA2EC4
:1031E000A89561E08B8151D55AB880B18B21E9F364
:1031F0003D853AB980917A00806480937A0080910D
:103200007A0086FDFCCF8091780090917900F701DB
:10321000E81BF90BCE0EDF1EF981F150F983F11195
:10322000DFCFC601880F991F880F991F69E070E0F2
:103230000E94054270936F0160936E013DCEE09055
:103240001F01F0902001B6018B899C890E94400FDC
:103250009701DC010E947042960150E040E00E941C
:103260002C423093690120936801AACF5AB8EBB879
:10327000812F0E94D20E5C01802F0E94D60E9F8368
:103280008E830E943B0F7C016A147B0408F0ABC064
:10329000B101C5010E94400F6C0120911F013091C6
:1032A000200150E040E060E871EA83E09CE10E9488
:1032B0002C42D6010E948542970150E040E00E94D6
:1032C0002C4229013A013A8131B912B84C814AB9EC
:1032D0004BB98E890E94D20E6C01802F0E94D60EAF
:1032E0004C01812F0E94D60E7C0180E3C81681E13B
:1032F000D80608F0E6C199819BB98E890E94D20E4A
:1033000099878887E981EAB98E890E94D20E988BC5
:103310008F871BB881E00E949E0EF981FBB98E89D0
:103320000E94D20E2F8538892034364008F079C0AB
:103330008133914108F475C0C6018A569F4F288594
:1033400039852817390708F06CC086E0809325017D
:10335000809159018F5F80935901B701C4010E9488
:10336000400F90934F0180934E01B701C6010E9418
:10337000400F90935501809354011AB81BB83A81BD
:1033800032B981E00E949E0E49814AB98E890E941D
:10339000D20E853F910528F58C818AB9802F0E9435
:1033A000D20E813D9340E8F08E890E94D60E8D3D6D
:1033B0009240B8F029812AB98E890E94D20E8D3DA3
:1033C000924078F049814BB981E00E949E0E1BB873
:1033D0008E890E94D20E853F910518F487E0809374
:1033E000250181E0F3C04AB82B812BB9812F0E94BF
:1033F000D20E5C01802F0E94D60E9F838E830E9486
:103400003B0F7C01C5012A143B0410F48219930977
:10341000B7010E94400F9C01A4E6B0E00E947042F8
:103420004BCF8A8181B99B819AB99BB981E00E9477
:103430009E0EEA85EAB9EBB98E890E94D20E6C0124
:103440000E943B0F7C01802F0E94D60E9D838C83AF
:103450000E943B0F99878887812F0E94D60E4C01CE
:10346000288539852E3F394008F4C0C084E0809318
:1034700025018CE080932401B101C7010E94400F17
:103480006C01209126013091270150E040E060E876
:1034900071EA83E09CE10E942C42D6010E948542A1
:1034A000E885F9859F0150E040E00E942C42809120
:1034B0005901882371F080914A0190914B01A091AC
:1034C0004C01B0914D0182179307A407B50708F08E
:1034D00079C020934A0130934B0140934C015093A3
:1034E0004D01B4018C819D810E94400F90934F014A
:1034F00080934E019701A0E1B7E20E9470422091B3
:1035000026013091270150E040E00E942C42309388
:1035100051012093500181E040914A0150914B01AB
:1035200060914C0170914D01441555056605770574
:1035300008F04AC040924A0150924B0160924C01FF
:1035400070924D01B5018E819F810E94400F909332
:103550004F0180934E019501A0E1B7E20E947042B5
:1035600020911F013091200150E040E00E942C4248
:10357000205F384D30935101209350019101A0E11B
:10358000B7E20E94704220911F013091200150E06B
:1035900040E00E942C4230935301209352012B852E
:1035A0003C85A0E1B7E20E94704220912601309153
:1035B000270150E040E00E942C42309355012093B7
:1035C00054010FCF80E0A8CF8111D8CF909159013D
:1035D0009F5F90935901882309F42FC100935601EE
:1035E0008E89809357011093580127C1F1E62F1659
:1035F000310408F066C029E4E2162DE0F20608F472
:1036000060C085E08093250182E080932401C4019D
:1036100086509F4F8C159D0508F03DC083E0809338
:1036200024013F893770D32E802F806480937C00E3
:103630004BE04A83EE24E394F12CA89560E08B8163
:1036400024D38A858AB98BB980B18D21E9F7998114
:103650009AB980917A00806480937A0080917A0090
:1036600086FDFCCF8091780090917900E80EF91EDC
:10367000EA81E150EA83E111E0CFC701880F991F89
:10368000880F991F69E070E00E9405427093550110
:103690006093540154CBA0902601B0902701B4014F
:1036A000C6010E94400F9501DC010E947042970103
:1036B00050E040E00E942C4230934F0120934E0195
:1036C000B0CF11B812B81AB81BB811B8F7EC2F1652
:1036D000F1E03F0608F4D6C012B82E852AB908ECEE
:1036E000EA803F89E32AE1B881E00E949E0E4A8188
:1036F00041B98E890E94D60E429710F0015099F779
:103700008E858AB98BB961E08B81BFD28E890E9488
:10371000D20E4C019D899AB91BB8EF89E1B9E2B983
:1037200060E08B81B2D2812F0E94D20E0E943B0FAB
:103730006C01FD85FAB9812F0E94D60E7C018E891D
:103740000E94D20EB7010E94400F5C01812F0E949F
:10375000D60E7C018E890E94D20EB7010E94400FC6
:1037600095012C5E3F4F2817390708F466C012B840
:103770002A8121B939813AB93BB961E08B8185D27F
:10378000812F0E94D60E7C018E890E94D20EB70135
:103790000E94400F7C01A816B90608F05BC04E8558
:1037A0004AB94BB98E890E94D20E9C016401E8EEA1
:1037B000EE16E3E0FE0608F05EC0C70164E670E0C6
:1037C0000E940542C701875991098938914108F043
:1037D00059C02E153F0508F055C0C60143E0969527
:1037E00087954A95E1F7893C910510F088EC90E0C7
:1037F0008C0D9D1D8E159F0508F044C06C157D0530
:1038000008F040C080912501833018F483E0809354
:10381000250120912301822F90E0FC01EB56FE4F01
:103820003E8930831683880F991FFC01EF55FE4FA8
:10383000F182E0822F5F2093230111B812B81AB8E9
:103840001BB88EE20E94500A6796E2E10C94714325
:10385000130139CF8D898AB91BB89F8991B992B963
:1038600060E08B8112D2812F0E94D20E0E943B0F0A
:103870009C0175019CCFB70154E0769567955A95E8
:10388000E1F7A0CF612F8E8901D0D7CFB0E0A0E0C3
:10389000ECE4FCE10C945743C82FD62FA895862F53
:1038A00090E0FC01E355FD4F5490339624914C2F4A
:1038B00050E0FA01E355FD4F149133960491609165
:1038C000730130915901630F7727771F672B09F038
:1038D00058C0A8956091290170912A01660F771F41
:1038E000660F771F70933B0160933A0160917801F6
:1038F00070917901660F771F660F771F70933901FA
:10390000609338013EEB3093360160912301E5E985
:10391000F1E030E0840F951F631338C012B821B96D
:103920001AB91BB9B8E1BB2ED12CC12C8D2F0E9426
:10393000D20E782E692E8C2F0E94D60E7C018C1907
:103940009D0997FF03C091958195910903970CF408
:103950005AC1A895BA946701B110E8CF80912901A6
:1039600090912A0190933B0180933A0180917801D4
:1039700090917901909339018093380189E1809386
:103980003601CDB7DEB7E0E10C9473435191458128
:10399000450F5527551F4817590701F33F5FBCCF07
:1039A00025E8C21621E0D206C8F6043AE2E01E0776
:1039B00008F0B5C0F8E9AF16B10480F2C6010E9464
:1039C0003B0FAC019601A8E9B7EB0E9470429A0147
:1039D00050E040E00E942C4229013A01C5010E94BA
:1039E0003B0F9C01A8E9B7EB0E947042950150E0A3
:1039F00040E00E942C4288E7C8168FE0D80608F005
:103A000072C0F2E0440C551C661C771CFA95D1F785
:103A1000C301B201620F731F841F951F25E030E0C0
:103A200040E050E00E942C42A4E6B0E00E948542B3
:103A30006B017C01FCEACF0EFDE0DF1EE11CF11CF6
:103A400010912501143008F089CFC1500C2F0D0FB3
:103A5000802F90E0EC01C25ADE4F2881880F991F19
:103A6000880F991F82559E4FFC01222309F4C4C080
:103A700080809180A280B380A7019601281939091E
:103A80004A095B0957FF07C050954095309521952D
:103A90003F4F4F4F5F4FAAE0B0E00E948542F4E6EF
:103AA0008F0E911CA11CB11CA50194012C0D3D1D74
:103AB0004E1D5F1D0E942C42232B242B252B09F029
:103AC0004DCF133019F081E08093250182E0888387
:103AD00080917A01E82FF0E0EF59FE4F00838F5F6D
:103AE00080937A013BCFE8E7AE16EFE0BE0670F4B4
:103AF000E2E0220F331F441F551FEA95D1F7CA0198
:103B0000B901640D751D861D971D88CF240D351DC7
:103B1000461D571D569547953795279585CFC090DB
:103B20002601D0902701672D762DE616F70608F4BA
:103B3000B701C7010E94400F9601DC010E9470424C
:103B40002B013C01C7010E943B0F9C0150E040E06B
:103B5000C301B2010E942C4229013A01A0901F0129
:103B6000B0902001892D982D8017910708F4C80185
:103B7000B8010E94400F9501DC010E94704298013B
:103B800050E040E00E942C4288E7E8168FE0F806FB
:103B9000B0F462E0440C551C661C771C6A95D1F7A2
:103BA000C301B201620F731F841F951F25E030E02F
:103BB00040E050E00E942C4269017A0141CF083771
:103BC000EFE01E0770F4CA01B90152E0660F771FDB
:103BD000881F991F5A95D1F7640D751D861D971D75
:103BE000E5CF73016201C20ED31EE41EF51EF694EA
:103BF000E794D794C79424CFC082D182E282F38223
:103C000081E08883ABCE110F1BB81AB98C2F0E94AC
:103C1000D20E8135910508F0A1CE1BB98C2F0E94E0
:103C2000D20E6C0101B902B91BB85AB8A8E14A2EEC
:103C3000B12CA12C8C2F0E94D20E982E892E8D2F64
:103C40000E94D60E8C018A199B0997FF03C091959B
:103C500081959109039734F0A8954A945801411031
:103C6000E9CF7CCE550C5AB88D2F0E94D20E5C0144
:103C7000F0ECEF16F4E4FF0608F492CE80EBC816E1
:103C80008DE4D80608F06ACE90CECF93C82FC095A9
:103C90009BB160FF10C0982B9BB99AB1892B8AB950
:103CA00082E00E949E0E8AB18C238AB98BB18C234C
:103CB0008BB9CF9108959C23EFCFAF92BF92DF9243
:103CC000EF92FF920F931F93CF93DF931AE08CEF45
:103CD000D82E09E011B812B81BB8DAB880E00E94FB
:103CE000D20E7C0181E00E94D60EEC0182E00E949F
:103CF000D60E9C01809125018930C1F411B81AB803
:103D0000F0920601E0920501D0930801C0930701EB
:103D100030930A0120930901DF91CF911F910F91F8
:103D2000FF90EF90DF90BF90AF90089584E0E81689
:103D3000F10450F4C430D10508F04EC024303105F0
:103D4000E8F291E092600AC091E088EEE81683E024
:103D5000F80608F090E0C83ED340A0F3283E334078
:103D600008F4946091B9D0E0C0E0A89580E00E948A
:103D7000CA0E5C0181E00E94D60E7C0182E00E94A6
:103D8000D60E24E1A21625E0B20608F4089A24E132
:103D9000E21625E0F20608F4099A843125E092073C
:103DA00008F40A9A26E0A216B10430F426E0E216DE
:103DB000F10410F4069738F02196C43F81E0D8074B
:103DC000A1F600932501F12CE12CEC16FD0631F44F
:103DD000115009F07FCFA0CF91E0BDCF0E948D0E92
:103DE0002FEFE21AF20AF1CFCF92DF92EF92FF9219
:103DF000CF9320917F0130918001409181015091BA
:103E00008201C09191018AE0C82ED12CE12CF12CC5
:103E10008C2FCF5F213A96E8390791E04907510589
:103E2000E0F480939101A0913A01B0913B010E948E
:103E3000854228E833E140E050E00E942C42209384
:103E40007F01309380014093810150938201CF9193
:103E5000FF90EF90DF90CF900895CA01B901A701BC
:103E600096010E942C42D4CF8F929F92AF92BF9224
:103E7000CF92DF92EF92FF921F93CF93DF93C82FE1
:103E8000162F880F8C0F9FEF960F890F80935B0181
:103E9000EC2FF0E0E355FD4FD491862F90E0FC012C
:103EA000E355FD4FF490FC01E055FD4FD490809117
:103EB00025018130A9F120912301A5E9B1E090E02D
:103EC00080E08217C8F110928C0110928B0181EF73
:103ED0008093910110927F011092800110928101D4
:103EE00010928201EADE12B8D1B8FAB8FBB88C2F72
:103EF0000E94D60E5C01812F0E94D60EA81AB90A24
:103F00001AB810925D0110925C0180915C01909151
:103F10005D01843F914028F111B812B81AB81BB85E
:103F2000DF91CF911F91FF90EF90DF90CF90BF90E6
:103F3000AF909F908F90089516963C9116973113ED
:103F40000DC03C913C130AC0FC01EE0FFF1FEB5665
:103F5000FE4F448555854C3D554010F30196119612
:103F6000B0CFDBB9DAB90E94870E1AB81BB80E942D
:103F70008E0EA8958C2F0E94D60E7C01EA18FB08A5
:103F800080915C0190915D018E37910528F08BE462
:103F9000E816F1040CF4C0CF80915C0190915D01B2
:103FA0002DE2E21621E0F2060CF022C20196909377
:103FB0005D0180935C01A9CF0E94880E8C2F0E9426
:103FC000D60E8A199B09A8952FEFC21AD20A209102
:103FD0005C0130915D012C153D0570F75701A81A61
:103FE000B90A1A141B040CF0ADC039ECA316B104C5
:103FF0000CF092CF28EE33E0D5010E947F4297016A
:104000000F2C000C440B550B0E942C42690180912F
:104010005C0190915D010196B0E0A0E08093870182
:1040200090938801A0938901B0938A01C7018A0DFA
:104030009B1D32D2209187013091880140918901E6
:1040400050918A01DC010E94854260938701709340
:1040500088018093890190938A0160937F01709316
:104060008001809381019093820187EF8093910179
:10407000BBDE80907F0190908001A0908101B09084
:10408000820185E090E00E940544A8EEB3E0A81B01
:10409000B10987FDB395A50194010E948F4224E6E2
:1040A00030E040E050E00E942C4220937F013093AA
:1040B00080014093810150938201809123018823E4
:1040C00029F080912501853009F026CF88E0809382
:1040D000250180919101909192019817C4F0891364
:1040E0001BCF80907F0190908001A0908101B090C3
:1040F000820140918301509184016091850170910A
:104100008601481559056A057B0508F005CF4091E1
:104110007F015091800160918101709182014093F3
:10412000830150938401609385017093860180938D
:104130009201D0928E01C0928D0110938F01C09395
:104140009001EACED12CC12C62CFB7DD1BB887E03D
:1041500081B912B8FD2EFF0CFAB880E480937B0081
:1041600084E580BF8C2F806480937C0086E18093FF
:104170007A000E94910E10925D0110925C011092E3
:104180008000109285001092840087E286BB81E255
:1041900080936F0081E080937C01FBB890912501B2
:1041A00080938100953009F005C181E090E00C2EEC
:1041B00001C0880F0A94EAF78095877081B9F89456
:1041C00083B7817F83BF80917C01882389F083B787
:1041D000816083BF7894889583B78E7F83BFF8947E
:1041E000A89580915C0190915D018034964059F7CB
:1041F000789410928100E0908600F09087001092F1
:104200006F0086E980937A001AB81BB88C2F0E9441
:10421000D60E20913E0130913F01821B930B0C96EC
:10422000909394018093930180915C0190915D0142
:104230008032934008F070CE80915C0190915D01D6
:1042400090938A0180938901F0928801E09287011E
:1042500084EF8093910180915C0190915D018234A3
:104260009105C8F060918701709188018091890162
:1042700090918A0124E630E040E050E00E942C4218
:1042800020938701309388014093890150938A01DC
:1042900086EF80939101A0917D01B0917E012091E4
:1042A0008701309188014091890150918A010E94D3
:1042B000854220E233E040E050E00E942C4220930F
:1042C0008701309388014093890150938A0120939C
:1042D0007F0130938001409381015093820184DDFE
:1042E00080919101843F09F054C0C0907F01D0902B
:1042F0008001E0908101F090820180EAC8168FE091
:10430000D806E104F104C0F4A70196012C543F4FF4
:104310004F4F5F4F60EA7FE080E090E00E942C42C8
:10432000C20ED31EE41EF51EC0927F01D092800102
:10433000E0928101F0928201C0907F01D0908001D3
:10434000E0908101F0908201C114D10421E0E206E5
:10435000F10490F5D092BF01C092BE0180915B0143
:1043600090E08E5D9F4F0E94054490E0B0E0A0E099
:104370008C159D05AE05BF0530F5C81AD90AEA0AA5
:10438000FB0AC0927F01D0928001E0928101F092FD
:104390008201DAB980917F0190918001A091810121
:1043A000B09182014997A105B10508F4B5CDD12C92
:1043B000C12C83CED1B803CF81E090E09093BF01B0
:1043C0008093BE01CBCF34E1C30ED11CE11CF11CA4
:1043D000C816D906EA06FB0610F40E94D314109200
:1043E0007F01109280011092810110928201D1CF41
:1043F000892B31F485E1E81685E0F8060CF0A5CEAE
:10440000C701D12CC12CE3CD1F920F920FB60F9292
:1044100011248F939F93B59904C080917C018111E1
:1044200009C0B59B10C080918600909187008A3F9B
:10443000910548F480915C0190915D010196909303
:104440005D0180935C019F918F910F900FBE0F9043
:104450001F9018951F920F920FB60F9211248F93F1
:104460009F9310927C01B09B10C080918600909128
:1044700087008A3F910548F480915C0190915D012D
:10448000019690935D0180935C019F918F910F90B5
:104490000FBE0F901F9018950F9221E08C3292075B
:1044A00010F48CE291E08C52914069E170E00E943E
:1044B000054299E16B3210F0982F6BE2981BE2E114
:1044C000F7E0E60FF11DE60FF11D4591559125919D
:1044D0003591692F421B530B649FC001659F900D5E
:1044E00011240C9669E170E00E940542620F731F6F
:1044F000CB010F900895B0E0A0E0E1E8F2E20C9467
:104500005B4388E893E190932A018093290190937B
:104510003B0180933A018EEB8093360112B880E123
:1045200081B90E94960E11B884E00E94D20EAC01AF
:104530008B5C9840833F9140A0F481E080934501DB
:1045400020913A0130913B01AFEBB9E00E947042FB
:104550009A0150E040E00E942C4230932A012093BF
:1045600029018091290190912A0190933B01809328
:104570003A018EE10E94D60E8EE10E94D20E9093F7
:104580003F0180933E010E94231097DB12B8FF2465
:10459000F394F1B884E58BB9D4E0DAB980E00E94F5
:1045A000D20E8C01C2E0C1B980E1C82ECAB881E048
:1045B0000E94D20E080F191FD1B990E4D92EDAB893
:1045C00082E00E94D20E080F191F1BB8F2B8F1B892
:1045D000DAB980E00E94D20E0E943B0F7C01C2B982
:1045E000C1B9CAB881E00E94D20E0E943B0FE80E0A
:1045F000F91ED2B9D1B9DAB882E00E94D20E0E9477
:104600003B0FE701C80FD91F11B812B81AB8809133
:104610003A0190913B016C01CC0CDD1CC80ED91EF7
:10462000C01AD10ACC1ADD0AF12CE12C9801A0E9BC
:10463000BAE10E947042A70196010E942C424901F2
:104640005A0130934401209343019E01A0E9BAE14D
:104650000E947042A70196010E942C4230933D01B6
:1046600020933C012057354E30932701209326019B
:1046700080E7881A85EE980A9092200180921F01A7
:1046800089E180933601CDB7DEB7ECE00C94774337
:10469000CF92DF92EF92FF920F93CF93DF93F82E9A
:1046A000D62FC42F0E94A10A87E993E00E94EF0A47
:1046B000D7D16D2F8F2D0E94AC39C090C201D09000
:1046C000C301E090C401F090C5018091020187FD13
:1046D00005C0C114D104E104F10421F083E993E0A1
:1046E0000E94EF0A8D2F0E94A10AC114D104E10497
:1046F000F10409F474C00E94A40A809161010E942F
:10470000AA0BCC2309F467C0809146018F3030F4A6
:104710008650990B845F9E4E0E94EF0A80E00E94B3
:10472000D10ACD28CE28CF2809F45EC06091C201FD
:104730007091C3018091C4019091C50103E028E408
:1047400047EF0E94320C86EA93E00E94EF0A8CE267
:1047500090E00E940D4423E046E464EF0E94120DB5
:104760008091BA019091BB01A091BC01B091BD01B3
:10477000892B8A2B8B2B01F180E00E94D10A60915A
:10478000BA017091BB018091BC019091BD0104E020
:1047900028E440E00E94320C81EA93E00E94EF0A94
:1047A00023E040E26FEF8091C0019091C1010E942F
:1047B000120D0E94B00A07C080E00E94B60A8091E4
:1047C00049018823B1F3DF91CF910F91FF90EF90D2
:1047D000DF90CF90089580E00E94D10AA7CFC11149
:1047E00093CF80E00E94D10A809161010E94AA0BC0
:1047F000809102018E3F0CF0B3CF85ED94E00E94D2
:10480000EF0A60910B0170910C0180910D01909164
:104810000E0103E028E4409102010E94320CA0CF77
:1048200083E093E00E9471300E94C61060E082E055
:104830002DD862E080E02AD80E94130980917A0185
:10484000882389F041E062E080E022DF88EE93E097
:104850000E94930F811104C080911E01843020F3C7
:104860000C941A09089583E093E00E94EF0A80E116
:1048700091E10E94EF0A0E9466098FE30E94500AAC
:1048800080E00E94B60A0E94B00AE0CFEF92FF9249
:104890000F931F93CF93DF93182F0E9413098091DA
:1048A0008F010E94A10A81EF94E00E94EF0AB7D421
:1048B00060918F01809190010AD3EC0190938C015B
:1048C00080938B01E0908D01F0908E01CA3F8FEFB5
:1048D000D80720F488E993E00E94EF0A80919001C4
:1048E0000E94A10A112309F445C0909146018FE06E
:1048F000891B0E94A70A88EF92E00E94EF0A0E949B
:104900006609609183017091840180918501909185
:10491000860104E026E4409192010E94320CCA3FD5
:10492000DF4F68F480EE94E00E94EF0A22E044E05A
:104930006EEF80918B0190918C010E94120D0E946C
:10494000B00A0E946E09E114F10469F089ED94E067
:104950000E94EF0A22E045E26FEF80918D01909175
:104960008E010E94120D0E94B00ACDB7DEB7E6E0BC
:104970000C947D430E94B00AC2CF1F93CF93DF9364
:10498000C8E0D2EF1FE00E94C61060E082E06CDA5F
:10499000C093250180919101843FE1F480917F01D2
:1049A00090918001A0918101B0918201843691059E
:1049B000A105B10578F440E060E082E00E94343760
:1049C00060937F01709380018093810190938201B5
:1049D000D093910180919101823F2CF180939201BB
:1049E00080917F0190918001A0918101B09182011D
:1049F0008093830190938401A0938501B0938601F5
:104A000081E044DF88EE93E00E94930F811105C09E
:104A100080911E01843008F4B6CF0E941A09DF91FC
:104A2000CF911F9108950E9413098CEF92E00E948C
:104A3000EF0A80914601912F981B892F0E94A70AA7
:104A400088EF92E00E94EF0A0E9466098FE30E94BD
:104A5000500A0E94B00A0E946E090E94B00AD2CF8A
:104A6000A6E1B0E0E6E3F5E20C94554382E08093E2
:104A7000020180912501813009F0EBC180917A011A
:104A8000813009F0E6C14090610124E0429EF001CE
:104A90001124E255FE4F80819181A281B38189303A
:104AA00032E59307A105B10508F0D3C11C01712CB3
:104AB00081E0871508F4D1C1842D0E94A00B982EA7
:104AC000892EE82DF0E0E055FD4F5490892D90E0BF
:104AD000FC01E355FD4FE4911BB812B8272D21705E
:104AE000622E30EF2316310408F0BCC12111BAC187
:104AF00000911F011091200100591A4121E030E07E
:104B0000092C02C0220F331F0A94E2F7C90185293C
:104B100081B934E1398B892D0E94CE0E5C01882D3C
:104B20000E94D60E24E0A216B10410F4049728F0D7
:104B300039893150398B3111EECF80E480937B007D
:104B400094E590BF892D806480937C0026E12093BA
:104B50007A00F12CE12C10928000109285001092C6
:104B6000840037E236BB0E94910E872D90E09A8B2D
:104B7000898B61107EC181E88093810052B886B331
:104B800085FD0CC080FFFBCF21E026BBA8959701D7
:104B90002F5F3F4F79012035310589F712B8109208
:104BA000810030E236BB2091860030918700690198
:104BB00040918400509185002417350738F480FF18
:104BC00005C081E086BB9FEFE91AF90A86E9809368
:104BD0007A00B4E15B2E892D0E94CE0E5C01882DF7
:104BE0000E94D60E24E0A216B10410F4049718F027
:104BF0005A945110F0CF8090430190904401820C60
:104C0000931C800E911E20912101309122010039C8
:104C10008AE1180708F036C169E191EEC916D1049E
:104C2000E104F10430F4C60165E070E00E94054241
:104C3000645128523109261B310967FD339566E01E
:104C4000862F90E0B0E0A0E08C159D05AE05BF0575
:104C500008F021C1C81AD90AEA0AFB0A662029F01D
:104C600082E2C80ED11CE11CF11C90E5E916F104AA
:104C700018F0C12CD12C76018BE0C816D104E104C8
:104C8000F10428F091E0C91AD108E108F108B12C2B
:104C9000A12CA8EEB3E00E9470426B8B7C8B8D8BB5
:104CA0009E8BA0913A01B0913B0198010E94704205
:104CB000A50194010E942C42442755276B897C89C9
:104CC0008D899E890E942C42C9010E947B10FC01A3
:104CD000A5019401C701B6010E94EA414B015C01A4
:104CE000BF0190E080E0E3E0660F771F881F991F07
:104CF000EA95D1F76B5F7F4F8F4F9F4F2AE030E0EF
:104D000040E050E00E942C42C501B4010E942C42B8
:104D1000E989FA89EE0FFF1FEE0FFF1F81E090E097
:104D20008C0F9D1FE80FF91F20833183428353832B
:104D3000611018C09CE0C916D104E104F10490F0A0
:104D40007394E989FA893196EE0FFF1FEE0FFF1F6A
:104D500081E090E08C0F9D1FE80FF91F20833183C5
:104D600042835383A895739493E0971508F0A0CEDF
:104D700012B884E00E949E0E91E00D811E812F8169
:104D8000388549815A816B817C81401751076207C0
:104D9000730708F090E00D851E852F8538894985B9
:104DA0005A856B857C8582E040175107620773073F
:104DB00008F483E024E0829FD001112421E030E058
:104DC0002C0F3D1FA20FB31FE92FF0E0EE0FFF1FC6
:104DD000EE0FFF1FE20FF31F0D911D912D913C91DE
:104DE00040815181628173810417150726073707B7
:104DF00008F0892F34E0839FF001112421E030E096
:104E00002C0F3D1FE20FF31F40815181628173819E
:104E100040930B0150930C0160930D0170930E01B0
:104E200080FD3DC030EF23163104C8F58BEF809331
:104E3000020180910B0190910C01A0910D01B091A4
:104E40000E01892B8A2B8B2B11F41092020111B8C1
:104E50001AB86696E2E10C947143842D0E94A00B6F
:104E60004C012FCEEAB951B800911F0110912001D9
:104E700050CE52B80E949A0E90E296BB81E8809381
:104E800081007DCEC40160EB76E30E940542695F3C
:104E9000285D3F4FD5CEC12CD12C7601DFCE8CEFD3
:104EA00080930201CB01BA016B5F7F4F8F4F9F4F01
:104EB0002AE030E040E050E00E942C4220930B01B9
:104EC00030930C0140930D0150930E01B2CFAEE12F
:104ED000B0E0EDE6F7E20C945543662EB82E860F4F
:104EE000898320912501283059F520918301309143
:104EF0008401409185015091860157FD15C01091A4
:104F0000920109C0CA01B9012AE0312D412D512D6C
:104F10000E942C421F5F173FACF391F4243160E0F4
:104F200036074105510518F48FEF9FEF45C1173F34
:104F300039F480E028178DE738074105410510F066
:104F400020E03DE72C8B3D8B26EDA22EE0EBF2E03E
:104F5000E60DF11D859180608E87E0EBF2E0EB0DB0
:104F6000F11D859180608F87EDEAF2E0E60DF11D7D
:104F70007590EDEAF2E0EB0DF11DC59090E8692A1D
:104F8000B92A81E0E82EF12C012D112D8E831F828C
:104F9000188619861A861B861C861D86188E198E01
:104FA0001B8E1A8E0E945D1E80E082B960927C008A
:104FB0000E94920E3F8531B97BB87AB852E05A957B
:104FC000F1F7000000001AB81BB8DD243E8531B9A6
:104FD0007BB87AB860927C00A895A0927A00809104
:104FE0007A0086FDFCCF2090780030907900B09256
:104FF0007C004C2DE5D02091780030917900288BF1
:10500000398B3F8531B9CBB8CAB8A895B0927C002E
:10501000A0927A0080917A0086FDFCCF60917800A2
:105020007091790060927C00472DCAD04091780041
:10503000509179001AB8CB01820D931DE80EF91E2C
:10504000011D111DEA82FB820C831D8388899989C9
:10505000840F951F2E813F8168857985280F391F20
:10506000611D711D2E833F836887798722E3241792
:10507000150650F07BB87AB80E949C0E1AB81BB87F
:10508000888D8395888F07C0483E73E0570718F0D6
:105090008A8D83958A8F888999892817190660F0E7
:1050A0003E8531B9CBB8CAB80E949C0E1AB81BB85D
:1050B000898D8395898F07C0883E73E0970718F024
:1050C0008B8D83958B8FD3945D2D5F3F49F05F3738
:1050D00031F45C2D550FC50E572D550F750E76CF3B
:1050E0004090430150904401440C551C9201E4E06F
:1050F000240D351DEA95E1F72901570168016E80FD
:105100007F8088849984209125012830C1F46C899E
:105110007D89812D912D65507040804090409B018C
:10512000AC010E94EA419B01AC0160E779E786E1AE
:1051300090E00E942C42621A730A840A950AA6140F
:10514000B704C804D90428F46A187B088C089D08A1
:1051500003C0662477244301B20180E090E093010C
:10516000A4010E94EA419501A6010E942C4281E01F
:1051700090E07981870F911D0E940544682EC90136
:1051800060E170E00E940542260F371FC9016816D2
:10519000190618F4861991090FC08C5E9F4F861569
:1051A000910540F48C899D89843981E1980710F03C
:1051B0000E94D314812D912D6E96E2E10C947143DF
:1051C000109281001092800010926F0010928B005C
:1051D00010928A0057E056BB5FEF509385005093C2
:1051E000840055E050937B0056EB50937A0051E0D9
:1051F0005093810058E25A95F1F700004BB94AB933
:1052000055E05A95F1F700001AB81BB810928100CA
:1052100080917A0084FFFCCF80937A000895B0E0FB
:10522000A0E0E5E1F9E20C94574300918D01109163
:105230008E010115110509F08EC0E0918F01F0E09B
:10524000E055FD4FD491E0919001F0E0E355FD4F22
:10525000C4910E945D1E12B81BB8D1B9CAB9809121
:1052600090010E94D60E7C01D09192018CE08D0FAE
:10527000843008F070C08091830190918401A091E6
:105280008501B0918601D15F2AE0422E512C612C1C
:10529000712CBC01CD016B5F7F4F8F4F9F4FA301DE
:1052A00092010E942C4249015A01DA01C901DF5FD3
:1052B000D73079F7893823E19207A105B10508F0C5
:1052C0004AC0059708F447C0CBB9CAB9D0E0C0E0DE
:1052D000C815D90508F444C01AB81BB8A89585E0CC
:1052E00080933601809190010E94D60EEC01CE1978
:1052F000DF09E816F90610F0D0E0C0E0D12CC12C8F
:10530000C814D90488F1809190010E94D60E29E139
:1053100020933601A895E816F90618F48C010E19A9
:105320001F090C171D0788F49E01201B310B69F023
:10533000A4EFB1E00E9470429E0150E040E00E9464
:105340002C4230938E0120938D010E945D1E11B876
:1053500012B81AB81BB8CDB7DEB7E0E10C947343AE
:105360000E94980E2296B4CF0E94980E8FEFC81A12
:10537000D80AC6CFACE0B0E0E0ECF9E20C945543BB
:10538000389A282F21702A8780FD0CC0409897B149
:10539000966097B941984298811106C082E895E0DD
:1053A000A0D60CC0409AF3CF813019F481E795E084
:1053B000F7CF843008F064C1419A429860EF6F8360
:1053C00020980E948D0E14BC16BC109212011092EF
:1053D0001301109214011092150181E085BB809396
:1053E0006E0010928000A3E1BAE7B0938B00A09307
:1053F0008A00E1E0F0E0F0938900E09388001092E9
:1054000085001092840083B5816083BDF6E0F6BB11
:10541000F0936F00789424E02093810062E3698325
:105420001A820E94860EA895379902C081E08A836D
:1054300085B5882329F09981915099839111F1CFF5
:1054400015BC86B5809312018091120190911301D1
:10545000A0911401B09115018B839C83AD83BE8311
:105460000E946E090E94B00A0E9476090E94B00A4A
:105470000E94DD0A86E60E94500A0E94E10A6091BD
:1054800012017091130180911401909115014099BE
:1054900003C147E00E94270D0E94A40A0E94A40AAB
:1054A000209880918100882319F08FE30E94500A90
:1054B0001092810010926F0020911201309113011F
:1054C0004091140150911501DA01C9010197A10918
:1054D000B109813F9048A105B10508F0A2C0AAE03A
:1054E000B0E00E948542685F7F4F8F4F9F4F23E05F
:1054F00096958795779567952A95D1F7660F771FCB
:10550000709375016093740120980E948D0E16BCF3
:1055100010921201109213011092140110921501B1
:10552000F1E0F5BBF0936E001092770110927601D6
:1055300022E02BBB809168008260809368007894A1
:1055400080916C00816080936C0019820E94860EAD
:10555000A895379902C061E06A8380916C0080FF52
:1055600005C089818F5F89838A3F81F715BC80914F
:105570006C008E7F80936C00809168008D7F80939B
:10558000680086B5809312010E946E0984E50E942E
:10559000500A0E94E10AA0917401B0917501B98787
:1055A000A88760911201709113018091140190916C
:1055B000150128EA31E640E050E00E949542E88576
:1055C000F985612C712C43015F01C12CD12CE12C98
:1055D000F12C00E010E00E94E94249014C875B8712
:1055E0002B011C01409B08C004E00E948E4349012E
:1055F0004C875B872B011C01888599858038910534
:1056000008F458C007E023E745EFB4018C859B857B
:105610000E94320C99819A3F09F066C08FE30E9484
:10562000500A4099BCC08B819C81AD81BE81825F54
:105630009048A109B1098E329E48A740B10548F0B3
:105640008B819C81AD81BE8181329449AE41B1058F
:1056500008F0409A10926E0080ED97E00E94930F40
:105660002A81820F49F480911E01833028F46F81D2
:1056700061506F836111A4CE2C96E2E10C947143CA
:10568000863028F44198429A87E695E089CE419A7F
:10569000429A8DE595E084CE44E0660F771F881F1F
:1056A000991F4A95D1F747E00E94270D8FE20E948B
:1056B000500AF4CE84E6A82EB12CC12CD12CE12CBA
:1056C000F12C00E010E094014C855B85B201C10132
:1056D0000E94E942F22FE42F07E023E747EF6F2F04
:1056E000732F8E2F952F94CF94014C855B85B2013B
:1056F000C101263E354B4105510561057105810506
:10570000910509F008F48DCF0E94760986E60E9483
:10571000500A0E94E10A94014C855B85B201C101E7
:1057200054012115BAEC3B07BAE94B07BBE35B0711
:105730006105710581059105F1F0E8F06A017201DA
:10574000810120E030E04AE85DE568E775E483E642
:1057500091E00E94E942F22FE42F07E028E44AEFAB
:105760006F2F732F8E2F952F0E94320C8AE70E9485
:10577000500A209856CFCC84DB847201810120E04E
:1057800030E44AE750E163EF7AE580E090E00E9480
:10579000E942F22FE42F07E028E44DEFE1CF8B81BF
:1057A0009C81AD81BE818F309840A105B10508F084
:1057B00051CFFA85F1114ECF40984CCF1F920F92E6
:1057C0000FB60F9211248F939F93AF93BF9378944A
:1057D0008091120190911301A0911401B0911501D3
:1057E0009F5FAF4FBF4F8093120190931301A0931F
:1057F0001401B0931501BF91AF919F918F910F90BC
:105800000FBE0F901F9018951F920F920FB60F9218
:1058100011248F9386E085BD8F910F900FBE0F905E
:105820001F9018951F920F920FB60F921124A895F2
:105830001092810015BC0F900FBE0F901F9018950D
:105840001F920F920FB60F9211242F933F938F93B5
:105850009F938091760190917701892B11F481E0DB
:1058600085BD2091760130917701809174019091EE
:1058700075012817390730F015BC80916C008E7FB8
:1058800080936C00809176019091770101969093BE
:105890007701809376019F918F913F912F910F9087
:1058A0000FBE0F901F901895803108F08051811124
:1058B00009C08DEF95E00E94EF0A0E94B00A0C9497
:1058C0000E090895813019F482E895E0F4CF823012
:1058D00019F481E795E0EFCF8A3019F487E695E077
:1058E000EACF8B3019F48DE595E0E5CF833019F4DC
:1058F00084ED95E0E0CF843019F489EC95E0DBCFBE
:10590000853019F48EE093E0D6CF863019F483E029
:1059100093E0D1CF873019F48CEF92E0CCCF883070
:1059200019F48AEB95E0C7CF893019F489EA95E03C
:10593000C2CF8C3019F48AE995E0BDCF8D3019F4CF
:1059400085EF95E0B8CF8E3019F484E595E0B3CFBC
:105950008F3019F48BEE95E0AECF823409F0ADCFE5
:1059600080EE95E0A8CF0F938EE093E0BAD310922B
:10597000250160E082E0CAD380912501883009F0DA
:1059800046C00E94660983E40E94500A0E94E10A10
:1059900060918301709184018091850190918601CD
:1059A00003E026E4409192010E94320C0E94B00A6A
:1059B00060918F01809190018ADA90938C0180939D
:1059C0008B010E946E0981EE94E00E94EF0A8091A3
:1059D0008B0190918C018A3F2FEF9207A0F422E077
:1059E00044E06EEF0E94120D0E94B00A88EE93E030
:1059F0000E94930F811105C080911E01843008F42C
:105A0000B6CF0F9108958FE30E94500AEDCF0E9408
:105A1000DD0A0E946E09E8CFCF93DF9385EF95E012
:105A200060D3C0E0DAE00E9466090E940E090E947D
:105A30000E098BEC94E00E94EF0A83E00E94D20EE4
:105A400063E09C01D29FC001D39F900D11240E945E
:105A50001D0D0E94B00A88EE93E00E94930F8F35CF
:105A600048F081E08C0F853018F0DF91CF910895D8
:105A7000C82FD9CF8823E1F38C2FF5CFA4E0B0E075
:105A8000E4E4FDE20C94554384ED95E02AD380E1F3
:105A90008093800010926F0081E090E090938900E5
:105AA0008093880010928B0010928A0083E086BB5E
:105AB0001092820088E0809381001BB884E58AB947
:105AC00012B881E081B9229A89E0809381001AE0BE
:105AD00021E02B83812C912C5401839431E13C8370
